{
  "_format": "hh-sol-artifact-1",
  "contractName": "MyEpicNFT",
  "sourceName": "contracts/MyEpicNFT.sol",
  "abi": [
    {
      "inputs": [],
      "stateMutability": "nonpayable",
      "type": "constructor"
    },
    {
      "anonymous": false,
      "inputs": [
        {
          "indexed": true,
          "internalType": "address",
          "name": "owner",
          "type": "address"
        },
        {
          "indexed": true,
          "internalType": "address",
          "name": "approved",
          "type": "address"
        },
        {
          "indexed": true,
          "internalType": "uint256",
          "name": "tokenId",
          "type": "uint256"
        }
      ],
      "name": "Approval",
      "type": "event"
    },
    {
      "anonymous": false,
      "inputs": [
        {
          "indexed": true,
          "internalType": "address",
          "name": "owner",
          "type": "address"
        },
        {
          "indexed": true,
          "internalType": "address",
          "name": "operator",
          "type": "address"
        },
        {
          "indexed": false,
          "internalType": "bool",
          "name": "approved",
          "type": "bool"
        }
      ],
      "name": "ApprovalForAll",
      "type": "event"
    },
    {
      "anonymous": false,
      "inputs": [
        {
          "indexed": false,
          "internalType": "address",
          "name": "sender",
          "type": "address"
        },
        {
          "indexed": false,
          "internalType": "uint256",
          "name": "tokenId",
          "type": "uint256"
        }
      ],
      "name": "NewEpicNFTMinted",
      "type": "event"
    },
    {
      "anonymous": false,
      "inputs": [
        {
          "indexed": true,
          "internalType": "address",
          "name": "from",
          "type": "address"
        },
        {
          "indexed": true,
          "internalType": "address",
          "name": "to",
          "type": "address"
        },
        {
          "indexed": true,
          "internalType": "uint256",
          "name": "tokenId",
          "type": "uint256"
        }
      ],
      "name": "Transfer",
      "type": "event"
    },
    {
      "inputs": [
        {
          "internalType": "address",
          "name": "to",
          "type": "address"
        },
        {
          "internalType": "uint256",
          "name": "tokenId",
          "type": "uint256"
        }
      ],
      "name": "approve",
      "outputs": [],
      "stateMutability": "nonpayable",
      "type": "function"
    },
    {
      "inputs": [
        {
          "internalType": "address",
          "name": "owner",
          "type": "address"
        }
      ],
      "name": "balanceOf",
      "outputs": [
        {
          "internalType": "uint256",
          "name": "",
          "type": "uint256"
        }
      ],
      "stateMutability": "view",
      "type": "function"
    },
    {
      "inputs": [
        {
          "internalType": "uint256",
          "name": "tokenId",
          "type": "uint256"
        }
      ],
      "name": "getApproved",
      "outputs": [
        {
          "internalType": "address",
          "name": "",
          "type": "address"
        }
      ],
      "stateMutability": "view",
      "type": "function"
    },
    {
      "inputs": [],
      "name": "getMaxNFT",
      "outputs": [
        {
          "internalType": "uint256",
          "name": "",
          "type": "uint256"
        }
      ],
      "stateMutability": "view",
      "type": "function"
    },
    {
      "inputs": [],
      "name": "getTotalMinted",
      "outputs": [
        {
          "internalType": "uint256",
          "name": "",
          "type": "uint256"
        }
      ],
      "stateMutability": "view",
      "type": "function"
    },
    {
      "inputs": [
        {
          "internalType": "address",
          "name": "owner",
          "type": "address"
        },
        {
          "internalType": "address",
          "name": "operator",
          "type": "address"
        }
      ],
      "name": "isApprovedForAll",
      "outputs": [
        {
          "internalType": "bool",
          "name": "",
          "type": "bool"
        }
      ],
      "stateMutability": "view",
      "type": "function"
    },
    {
      "inputs": [],
      "name": "makeAnEpicNFT",
      "outputs": [],
      "stateMutability": "nonpayable",
      "type": "function"
    },
    {
      "inputs": [],
      "name": "name",
      "outputs": [
        {
          "internalType": "string",
          "name": "",
          "type": "string"
        }
      ],
      "stateMutability": "view",
      "type": "function"
    },
    {
      "inputs": [
        {
          "internalType": "uint256",
          "name": "tokenId",
          "type": "uint256"
        }
      ],
      "name": "ownerOf",
      "outputs": [
        {
          "internalType": "address",
          "name": "",
          "type": "address"
        }
      ],
      "stateMutability": "view",
      "type": "function"
    },
    {
      "inputs": [
        {
          "internalType": "address",
          "name": "from",
          "type": "address"
        },
        {
          "internalType": "address",
          "name": "to",
          "type": "address"
        },
        {
          "internalType": "uint256",
          "name": "tokenId",
          "type": "uint256"
        }
      ],
      "name": "safeTransferFrom",
      "outputs": [],
      "stateMutability": "nonpayable",
      "type": "function"
    },
    {
      "inputs": [
        {
          "internalType": "address",
          "name": "from",
          "type": "address"
        },
        {
          "internalType": "address",
          "name": "to",
          "type": "address"
        },
        {
          "internalType": "uint256",
          "name": "tokenId",
          "type": "uint256"
        },
        {
          "internalType": "bytes",
          "name": "_data",
          "type": "bytes"
        }
      ],
      "name": "safeTransferFrom",
      "outputs": [],
      "stateMutability": "nonpayable",
      "type": "function"
    },
    {
      "inputs": [
        {
          "internalType": "address",
          "name": "operator",
          "type": "address"
        },
        {
          "internalType": "bool",
          "name": "approved",
          "type": "bool"
        }
      ],
      "name": "setApprovalForAll",
      "outputs": [],
      "stateMutability": "nonpayable",
      "type": "function"
    },
    {
      "inputs": [
        {
          "internalType": "bytes4",
          "name": "interfaceId",
          "type": "bytes4"
        }
      ],
      "name": "supportsInterface",
      "outputs": [
        {
          "internalType": "bool",
          "name": "",
          "type": "bool"
        }
      ],
      "stateMutability": "view",
      "type": "function"
    },
    {
      "inputs": [],
      "name": "symbol",
      "outputs": [
        {
          "internalType": "string",
          "name": "",
          "type": "string"
        }
      ],
      "stateMutability": "view",
      "type": "function"
    },
    {
      "inputs": [
        {
          "internalType": "uint256",
          "name": "tokenId",
          "type": "uint256"
        }
      ],
      "name": "tokenURI",
      "outputs": [
        {
          "internalType": "string",
          "name": "",
          "type": "string"
        }
      ],
      "stateMutability": "view",
      "type": "function"
    },
    {
      "inputs": [
        {
          "internalType": "address",
          "name": "from",
          "type": "address"
        },
        {
          "internalType": "address",
          "name": "to",
          "type": "address"
        },
        {
          "internalType": "uint256",
          "name": "tokenId",
          "type": "uint256"
        }
      ],
      "name": "transferFrom",
      "outputs": [],
      "stateMutability": "nonpayable",
      "type": "function"
    }
  ],
  "bytecode": "0x608060405260405180610160016040528061012f8152602001620042ca61012f913960089080519060200190620000389291906200094f565b506040518061014001604052806040518060400160405280600981526020017f50656e6775696e735f000000000000000000000000000000000000000000000081525081526020016040518060400160405280600781526020017f5a65627261735f0000000000000000000000000000000000000000000000000081525081526020016040518060400160405280600781526020017f5768616c65735f0000000000000000000000000000000000000000000000000081525081526020016040518060400160405280600781526020017f4b6f616c61735f0000000000000000000000000000000000000000000000000081525081526020016040518060400160405280600781526020017f486970706f735f0000000000000000000000000000000000000000000000000081525081526020016040518060400160405280600581526020017f416e74735f00000000000000000000000000000000000000000000000000000081525081526020016040518060400160405280600881526020017f547572746c65735f00000000000000000000000000000000000000000000000081525081526020016040518060400160405280600781526020017f536c6f7468735f0000000000000000000000000000000000000000000000000081525081526020016040518060400160405280600681526020017f46726f67735f000000000000000000000000000000000000000000000000000081525081526020016040518060400160405280600681526020017f43726f77735f0000000000000000000000000000000000000000000000000000815250815250600990600a620002a3929190620009e0565b506040518061014001604052806040518060400160405280600581526020017f6c6f76655f00000000000000000000000000000000000000000000000000000081525081526020016040518060400160405280600581526020017f686174655f00000000000000000000000000000000000000000000000000000081525081526020016040518060400160405280600881526020017f64616e6365546f5f00000000000000000000000000000000000000000000000081525081526020016040518060400160405280600481526020017f6174655f0000000000000000000000000000000000000000000000000000000081525081526020016040518060400160405280600881526020017f776f72736869705f00000000000000000000000000000000000000000000000081525081526020016040518060400160405280600881526020017f646573706973655f00000000000000000000000000000000000000000000000081525081526020016040518060400160405280600781526020017f626f756768745f0000000000000000000000000000000000000000000000000081525081526020016040518060400160405280600581526020017f6c696b655f00000000000000000000000000000000000000000000000000000081525081526020016040518060400160405280600581526020017f706c61795f00000000000000000000000000000000000000000000000000000081525081526020016040518060400160405280600781526020017f6d616e6167655f00000000000000000000000000000000000000000000000000815250815250600a90600a6200050e929190620009e0565b506040518061014001604052806040518060400160405280600581526020017f517565656e00000000000000000000000000000000000000000000000000000081525081526020016040518060400160405280600d81526020017f526f6c6c696e6753746f6e65730000000000000000000000000000000000000081525081526020016040518060400160405280600681526020017f54686557686f000000000000000000000000000000000000000000000000000081525081526020016040518060400160405280600b81526020017f4c65645a657070656c696e00000000000000000000000000000000000000000081525081526020016040518060400160405280600781526020017f426561746c65730000000000000000000000000000000000000000000000000081525081526020016040518060400160405280600981526020017f50696e6b466c6f7964000000000000000000000000000000000000000000000081525081526020016040518060400160405280600581526020017f41432f444300000000000000000000000000000000000000000000000000000081525081526020016040518060400160405280600a81526020017f47756e734e526f7365730000000000000000000000000000000000000000000081525081526020016040518060400160405280600781526020017f4e697276616e610000000000000000000000000000000000000000000000000081525081526020016040518060400160405280600881526020017f506561726c4a616d000000000000000000000000000000000000000000000000815250815250600b90600a62000779929190620009e0565b506019600c556000600d553480156200079157600080fd5b506040518060400160405280600881526020017f53746f69634e46540000000000000000000000000000000000000000000000008152506040518060400160405280600581526020017f53544f49430000000000000000000000000000000000000000000000000000008152508160009080519060200190620008169291906200094f565b5080600190805190602001906200082f9291906200094f565b5050506200087d6040518060400160405280600c81526020017f4e465420636f6e747261637400000000000000000000000000000000000000008152506200088360201b62000e361760201c565b62000c01565b62000923816040516024016200089a919062000b15565b6040516020818303038152906040527f41304fac000000000000000000000000000000000000000000000000000000007bffffffffffffffffffffffffffffffffffffffffffffffffffffffff19166020820180517bffffffffffffffffffffffffffffffffffffffffffffffffffffffff83818316178352505050506200092660201b60201c565b50565b60008151905060006a636f6e736f6c652e6c6f679050602083016000808483855afa5050505050565b8280546200095d9062000b8b565b90600052602060002090601f016020900481019282620009815760008555620009cd565b82601f106200099c57805160ff1916838001178555620009cd565b82800160010185558215620009cd579182015b82811115620009cc578251825591602001919060010190620009af565b5b509050620009dc919062000a47565b5090565b82805482825590600052602060002090810192821562000a34579160200282015b8281111562000a3357825182908051906020019062000a229291906200094f565b509160200191906001019062000a01565b5b50905062000a43919062000a66565b5090565b5b8082111562000a6257600081600090555060010162000a48565b5090565b5b8082111562000a8a576000818162000a80919062000a8e565b5060010162000a67565b5090565b50805462000a9c9062000b8b565b6000825580601f1062000ab0575062000ad1565b601f01602090049060005260206000209081019062000ad0919062000a47565b5b50565b600062000ae18262000b39565b62000aed818562000b44565b935062000aff81856020860162000b55565b62000b0a8162000bf0565b840191505092915050565b6000602082019050818103600083015262000b31818462000ad4565b905092915050565b600081519050919050565b600082825260208201905092915050565b60005b8381101562000b7557808201518184015260208101905062000b58565b8381111562000b85576000848401525b50505050565b6000600282049050600182168062000ba457607f821691505b6020821081141562000bbb5762000bba62000bc1565b5b50919050565b7f4e487b7100000000000000000000000000000000000000000000000000000000600052602260045260246000fd5b6000601f19601f8301169050919050565b6136b98062000c116000396000f3fe608060405234801561001057600080fd5b50600436106101005760003560e01c80636352211e11610097578063b88d4fde11610066578063b88d4fde146102ad578063c87b56dd146102c9578063de9d132f146102f9578063e985e9c51461030357610100565b80636352211e1461021357806370a082311461024357806395d89b4114610273578063a22cb4651461029157610100565b8063095ea7b3116100d3578063095ea7b3146101a15780630ca1c5c9146101bd57806323b872dd146101db57806342842e0e146101f757610100565b806301ffc9a71461010557806302e7d3fb1461013557806306fdde0314610153578063081812fc14610171575b600080fd5b61011f600480360381019061011a9190612211565b610333565b60405161012c91906128f9565b60405180910390f35b61013d610415565b60405161014a9190612b94565b60405180910390f35b61015b61041f565b6040516101689190612914565b60405180910390f35b61018b60048036038101906101869190612263565b6104b1565b6040516101989190612869565b60405180910390f35b6101bb60048036038101906101b691906121d5565b610536565b005b6101c561064e565b6040516101d29190612b94565b60405180910390f35b6101f560048036038101906101f091906120cf565b610658565b005b610211600480360381019061020c91906120cf565b6106b8565b005b61022d60048036038101906102289190612263565b6106d8565b60405161023a9190612869565b60405180910390f35b61025d6004803603810190610258919061206a565b61078a565b60405161026a9190612b94565b60405180910390f35b61027b610842565b6040516102889190612914565b60405180910390f35b6102ab60048036038101906102a69190612199565b6108d4565b005b6102c760048036038101906102c2919061211e565b610a55565b005b6102e360048036038101906102de9190612263565b610ab7565b6040516102f09190612914565b60405180910390f35b610301610c09565b005b61031d60048036038101906103189190612093565b610da2565b60405161032a91906128f9565b60405180910390f35b60007f80ac58cd000000000000000000000000000000000000000000000000000000007bffffffffffffffffffffffffffffffffffffffffffffffffffffffff1916827bffffffffffffffffffffffffffffffffffffffffffffffffffffffff191614806103fe57507f5b5e139f000000000000000000000000000000000000000000000000000000007bffffffffffffffffffffffffffffffffffffffffffffffffffffffff1916827bffffffffffffffffffffffffffffffffffffffffffffffffffffffff1916145b8061040e575061040d82610ecf565b5b9050919050565b6000600c54905090565b60606000805461042e90612e28565b80601f016020809104026020016040519081016040528092919081815260200182805461045a90612e28565b80156104a75780601f1061047c576101008083540402835291602001916104a7565b820191906000526020600020905b81548152906001019060200180831161048a57829003601f168201915b5050505050905090565b60006104bc82610f39565b6104fb576040517f08c379a00000000000000000000000000000000000000000000000000000000081526004016104f290612af4565b60405180910390fd5b6004600083815260200190815260200160002060009054906101000a900473ffffffffffffffffffffffffffffffffffffffff169050919050565b6000610541826106d8565b90508073ffffffffffffffffffffffffffffffffffffffff168373ffffffffffffffffffffffffffffffffffffffff1614156105b2576040517f08c379a00000000000000000000000000000000000000000000000000000000081526004016105a990612b54565b60405180910390fd5b8073ffffffffffffffffffffffffffffffffffffffff166105d1610fa5565b73ffffffffffffffffffffffffffffffffffffffff16148061060057506105ff816105fa610fa5565b610da2565b5b61063f576040517f08c379a000000000000000000000000000000000000000000000000000000000815260040161063690612a14565b60405180910390fd5b6106498383610fad565b505050565b6000600d54905090565b610669610663610fa5565b82611066565b6106a8576040517f08c379a000000000000000000000000000000000000000000000000000000000815260040161069f90612b74565b60405180910390fd5b6106b3838383611144565b505050565b6106d383838360405180602001604052806000815250610a55565b505050565b6000806002600084815260200190815260200160002060009054906101000a900473ffffffffffffffffffffffffffffffffffffffff169050600073ffffffffffffffffffffffffffffffffffffffff168173ffffffffffffffffffffffffffffffffffffffff161415610781576040517f08c379a000000000000000000000000000000000000000000000000000000000815260040161077890612a54565b60405180910390fd5b80915050919050565b60008073ffffffffffffffffffffffffffffffffffffffff168273ffffffffffffffffffffffffffffffffffffffff1614156107fb576040517f08c379a00000000000000000000000000000000000000000000000000000000081526004016107f290612a34565b60405180910390fd5b600360008373ffffffffffffffffffffffffffffffffffffffff1673ffffffffffffffffffffffffffffffffffffffff168152602001908152602001600020549050919050565b60606001805461085190612e28565b80601f016020809104026020016040519081016040528092919081815260200182805461087d90612e28565b80156108ca5780601f1061089f576101008083540402835291602001916108ca565b820191906000526020600020905b8154815290600101906020018083116108ad57829003601f168201915b5050505050905090565b6108dc610fa5565b73ffffffffffffffffffffffffffffffffffffffff168273ffffffffffffffffffffffffffffffffffffffff16141561094a576040517f08c379a0000000000000000000000000000000000000000000000000000000008152600401610941906129d4565b60405180910390fd5b8060056000610957610fa5565b73ffffffffffffffffffffffffffffffffffffffff1673ffffffffffffffffffffffffffffffffffffffff16815260200190815260200160002060008473ffffffffffffffffffffffffffffffffffffffff1673ffffffffffffffffffffffffffffffffffffffff16815260200190815260200160002060006101000a81548160ff0219169083151502179055508173ffffffffffffffffffffffffffffffffffffffff16610a04610fa5565b73ffffffffffffffffffffffffffffffffffffffff167f17307eab39ab6107e8899845ad3d59bd9653f200f220920489ca2b5937696c3183604051610a4991906128f9565b60405180910390a35050565b610a66610a60610fa5565b83611066565b610aa5576040517f08c379a0000000000000000000000000000000000000000000000000000000008152600401610a9c90612b74565b60405180910390fd5b610ab1848484846113a0565b50505050565b6060610ac282610f39565b610b01576040517f08c379a0000000000000000000000000000000000000000000000000000000008152600401610af890612ad4565b60405180910390fd5b6000600660008481526020019081526020016000208054610b2190612e28565b80601f0160208091040260200160405190810160405280929190818152602001828054610b4d90612e28565b8015610b9a5780601f10610b6f57610100808354040283529160200191610b9a565b820191906000526020600020905b815481529060010190602001808311610b7d57829003601f168201915b505050505090506000610bab6113fc565b9050600081511415610bc1578192505050610c04565b600082511115610bf6578082604051602001610bde929190612746565b60405160208183030381529060405292505050610c04565b610bff84611413565b925050505b919050565b600c54600d541115610c50576040517f08c379a0000000000000000000000000000000000000000000000000000000008152600401610c4790612ab4565b60405180910390fd5b6000610c5c60076114ba565b90506000610c69826114c8565b90506000600882604051602001610c8192919061276a565b60405160208183030381529060405290506000610cc683610ca184611643565b604051602001610cb29291906127ec565b604051602081830303815290604052611643565b9050600081604051602001610cdb9190612847565b6040516020818303038152906040529050610cf63386611801565b610d00858261181f565b610d406040518060400160405280601981526020017f4e46542049643a2025732c204d696e74656420746f3a202573000000000000008152508633611893565b610d4a6007611932565b600d6000815480929190610d5d90612e8b565b91905055507febb98688741ffa4c7589bf325de30cf7becb63de567842e1ccdb6cb949fdc82c3386604051610d939291906128d0565b60405180910390a15050505050565b6000600560008473ffffffffffffffffffffffffffffffffffffffff1673ffffffffffffffffffffffffffffffffffffffff16815260200190815260200160002060008373ffffffffffffffffffffffffffffffffffffffff1673ffffffffffffffffffffffffffffffffffffffff16815260200190815260200160002060009054906101000a900460ff16905092915050565b610ecc81604051602401610e4a9190612914565b6040516020818303038152906040527f41304fac000000000000000000000000000000000000000000000000000000007bffffffffffffffffffffffffffffffffffffffffffffffffffffffff19166020820180517bffffffffffffffffffffffffffffffffffffffffffffffffffffffff8381831617835250505050611948565b50565b60007f01ffc9a7000000000000000000000000000000000000000000000000000000007bffffffffffffffffffffffffffffffffffffffffffffffffffffffff1916827bffffffffffffffffffffffffffffffffffffffffffffffffffffffff1916149050919050565b60008073ffffffffffffffffffffffffffffffffffffffff166002600084815260200190815260200160002060009054906101000a900473ffffffffffffffffffffffffffffffffffffffff1673ffffffffffffffffffffffffffffffffffffffff1614159050919050565b600033905090565b816004600083815260200190815260200160002060006101000a81548173ffffffffffffffffffffffffffffffffffffffff021916908373ffffffffffffffffffffffffffffffffffffffff160217905550808273ffffffffffffffffffffffffffffffffffffffff16611020836106d8565b73ffffffffffffffffffffffffffffffffffffffff167f8c5be1e5ebec7d5bd14f71427d1e84f3dd0314c0f7b2291e5b200ac8c7c3b92560405160405180910390a45050565b600061107182610f39565b6110b0576040517f08c379a00000000000000000000000000000000000000000000000000000000081526004016110a7906129f4565b60405180910390fd5b60006110bb836106d8565b90508073ffffffffffffffffffffffffffffffffffffffff168473ffffffffffffffffffffffffffffffffffffffff16148061112a57508373ffffffffffffffffffffffffffffffffffffffff16611112846104b1565b73ffffffffffffffffffffffffffffffffffffffff16145b8061113b575061113a8185610da2565b5b91505092915050565b8273ffffffffffffffffffffffffffffffffffffffff16611164826106d8565b73ffffffffffffffffffffffffffffffffffffffff16146111ba576040517f08c379a00000000000000000000000000000000000000000000000000000000081526004016111b190612b14565b60405180910390fd5b600073ffffffffffffffffffffffffffffffffffffffff168273ffffffffffffffffffffffffffffffffffffffff16141561122a576040517f08c379a0000000000000000000000000000000000000000000000000000000008152600401611221906129b4565b60405180910390fd5b611235838383611971565b611240600082610fad565b6001600360008573ffffffffffffffffffffffffffffffffffffffff1673ffffffffffffffffffffffffffffffffffffffff16815260200190815260200160002060008282546112909190612d3e565b925050819055506001600360008473ffffffffffffffffffffffffffffffffffffffff1673ffffffffffffffffffffffffffffffffffffffff16815260200190815260200160002060008282546112e79190612c5d565b92505081905550816002600083815260200190815260200160002060006101000a81548173ffffffffffffffffffffffffffffffffffffffff021916908373ffffffffffffffffffffffffffffffffffffffff160217905550808273ffffffffffffffffffffffffffffffffffffffff168473ffffffffffffffffffffffffffffffffffffffff167fddf252ad1be2c89b69c2b068fc378daa952ba7f163c4a11628f55a4df523b3ef60405160405180910390a4505050565b6113ab848484611144565b6113b784848484611976565b6113f6576040517f08c379a00000000000000000000000000000000000000000000000000000000081526004016113ed90612974565b60405180910390fd5b50505050565b606060405180602001604052806000815250905090565b606061141e82610f39565b61145d576040517f08c379a000000000000000000000000000000000000000000000000000000000815260040161145490612b34565b60405180910390fd5b60006114676113fc565b9050600081511161148757604051806020016040528060008152506114b2565b8061149184611b0d565b6040516020016114a2929190612746565b6040516020818303038152906040525b915050919050565b600081600001549050919050565b606060006103e86114d884611b0d565b6040516020016114e891906127ca565b6040516020818303038152906040528051906020012060001c61150b9190612ed4565b9050600060648261151c9190612cb3565b90506000600a808461152e9190612cb3565b6115389190612ed4565b90506000600a846115499190612ed4565b905060098381548110611585577f4e487b7100000000000000000000000000000000000000000000000000000000600052603260045260246000fd5b90600052602060002001600a83815481106115c9577f4e487b7100000000000000000000000000000000000000000000000000000000600052603260045260246000fd5b90600052602060002001600b838154811061160d577f4e487b7100000000000000000000000000000000000000000000000000000000600052603260045260246000fd5b9060005260206000200160405160200161162993929190612799565b604051602081830303815290604052945050505050919050565b6060600082519050600081141561166c57604051806020016040528060008152509150506117fc565b6000600360028361167d9190612c5d565b6116879190612cb3565b60046116939190612ce4565b905060006020826116a49190612c5d565b67ffffffffffffffff8111156116e3577f4e487b7100000000000000000000000000000000000000000000000000000000600052604160045260246000fd5b6040519080825280601f01601f1916602001820160405280156117155781602001600182028036833780820191505090505b5090506000604051806060016040528060408152602001613644604091399050600181016020830160005b868110156117b95760038101905062ffffff818a015116603f8160121c168401518060081b905060ff603f83600c1c1686015116810190508060081b905060ff603f8360061c1686015116810190508060081b905060ff603f831686015116810190508060e01b90508084526004840193505050611740565b5060038606600181146117d357600281146117e3576117ee565b613d3d60f01b60028303526117ee565b603d60f81b60018303525b508484525050819450505050505b919050565b61181b828260405180602001604052806000815250611cba565b5050565b61182882610f39565b611867576040517f08c379a000000000000000000000000000000000000000000000000000000000815260040161185e90612a74565b60405180910390fd5b8060066000848152602001908152602001600020908051906020019061188e929190611ef6565b505050565b61192d8383836040516024016118ab93929190612936565b6040516020818303038152906040527fe3849f79000000000000000000000000000000000000000000000000000000007bffffffffffffffffffffffffffffffffffffffffffffffffffffffff19166020820180517bffffffffffffffffffffffffffffffffffffffffffffffffffffffff8381831617835250505050611948565b505050565b6001816000016000828254019250508190555050565b60008151905060006a636f6e736f6c652e6c6f679050602083016000808483855afa5050505050565b505050565b60006119978473ffffffffffffffffffffffffffffffffffffffff16611d15565b15611b00578373ffffffffffffffffffffffffffffffffffffffff1663150b7a026119c0610fa5565b8786866040518563ffffffff1660e01b81526004016119e29493929190612884565b602060405180830381600087803b1580156119fc57600080fd5b505af1925050508015611a2d57506040513d601f19601f82011682018060405250810190611a2a919061223a565b60015b611ab0573d8060008114611a5d576040519150601f19603f3d011682016040523d82523d6000602084013e611a62565b606091505b50600081511415611aa8576040517f08c379a0000000000000000000000000000000000000000000000000000000008152600401611a9f90612974565b60405180910390fd5b805181602001fd5b63150b7a0260e01b7bffffffffffffffffffffffffffffffffffffffffffffffffffffffff1916817bffffffffffffffffffffffffffffffffffffffffffffffffffffffff191614915050611b05565b600190505b949350505050565b60606000821415611b55576040518060400160405280600181526020017f30000000000000000000000000000000000000000000000000000000000000008152509050611cb5565b600082905060005b60008214611b87578080611b7090612e8b565b915050600a82611b809190612cb3565b9150611b5d565b60008167ffffffffffffffff811115611bc9577f4e487b7100000000000000000000000000000000000000000000000000000000600052604160045260246000fd5b6040519080825280601f01601f191660200182016040528015611bfb5781602001600182028036833780820191505090505b5090505b60008514611cae57600182611c149190612d3e565b9150600a85611c239190612ed4565b6030611c2f9190612c5d565b60f81b818381518110611c6b577f4e487b7100000000000000000000000000000000000000000000000000000000600052603260045260246000fd5b60200101907effffffffffffffffffffffffffffffffffffffffffffffffffffffffffffff1916908160001a905350600a85611ca79190612cb3565b9450611bff565b8093505050505b919050565b611cc48383611d28565b611cd16000848484611976565b611d10576040517f08c379a0000000000000000000000000000000000000000000000000000000008152600401611d0790612974565b60405180910390fd5b505050565b600080823b905060008111915050919050565b600073ffffffffffffffffffffffffffffffffffffffff168273ffffffffffffffffffffffffffffffffffffffff161415611d98576040517f08c379a0000000000000000000000000000000000000000000000000000000008152600401611d8f90612a94565b60405180910390fd5b611da181610f39565b15611de1576040517f08c379a0000000000000000000000000000000000000000000000000000000008152600401611dd890612994565b60405180910390fd5b611ded60008383611971565b6001600360008473ffffffffffffffffffffffffffffffffffffffff1673ffffffffffffffffffffffffffffffffffffffff1681526020019081526020016000206000828254611e3d9190612c5d565b92505081905550816002600083815260200190815260200160002060006101000a81548173ffffffffffffffffffffffffffffffffffffffff021916908373ffffffffffffffffffffffffffffffffffffffff160217905550808273ffffffffffffffffffffffffffffffffffffffff16600073ffffffffffffffffffffffffffffffffffffffff167fddf252ad1be2c89b69c2b068fc378daa952ba7f163c4a11628f55a4df523b3ef60405160405180910390a45050565b828054611f0290612e28565b90600052602060002090601f016020900481019282611f245760008555611f6b565b82601f10611f3d57805160ff1916838001178555611f6b565b82800160010185558215611f6b579182015b82811115611f6a578251825591602001919060010190611f4f565b5b509050611f789190611f7c565b5090565b5b80821115611f95576000816000905550600101611f7d565b5090565b6000611fac611fa784612bd4565b612baf565b905082815260208101848484011115611fc457600080fd5b611fcf848285612de6565b509392505050565b600081359050611fe6816135e7565b92915050565b600081359050611ffb816135fe565b92915050565b60008135905061201081613615565b92915050565b60008151905061202581613615565b92915050565b600082601f83011261203c57600080fd5b813561204c848260208601611f99565b91505092915050565b6000813590506120648161362c565b92915050565b60006020828403121561207c57600080fd5b600061208a84828501611fd7565b91505092915050565b600080604083850312156120a657600080fd5b60006120b485828601611fd7565b92505060206120c585828601611fd7565b9150509250929050565b6000806000606084860312156120e457600080fd5b60006120f286828701611fd7565b935050602061210386828701611fd7565b925050604061211486828701612055565b9150509250925092565b6000806000806080858703121561213457600080fd5b600061214287828801611fd7565b945050602061215387828801611fd7565b935050604061216487828801612055565b925050606085013567ffffffffffffffff81111561218157600080fd5b61218d8782880161202b565b91505092959194509250565b600080604083850312156121ac57600080fd5b60006121ba85828601611fd7565b92505060206121cb85828601611fec565b9150509250929050565b600080604083850312156121e857600080fd5b60006121f685828601611fd7565b925050602061220785828601612055565b9150509250929050565b60006020828403121561222357600080fd5b600061223184828501612001565b91505092915050565b60006020828403121561224c57600080fd5b600061225a84828501612016565b91505092915050565b60006020828403121561227557600080fd5b600061228384828501612055565b91505092915050565b61229581612d72565b82525050565b6122a481612d84565b82525050565b60006122b582612c1a565b6122bf8185612c30565b93506122cf818560208601612df5565b6122d881612fc1565b840191505092915050565b60006122ee82612c25565b6122f88185612c41565b9350612308818560208601612df5565b61231181612fc1565b840191505092915050565b600061232782612c25565b6123318185612c52565b9350612341818560208601612df5565b80840191505092915050565b6000815461235a81612e28565b6123648186612c52565b9450600182166000811461237f5760018114612390576123c3565b60ff198316865281860193506123c3565b61239985612c05565b60005b838110156123bb5781548189015260018201915060208101905061239c565b838801955050505b50505092915050565b60006123d9603283612c41565b91506123e482612fd2565b604082019050919050565b60006123fc601c83612c41565b915061240782613021565b602082019050919050565b600061241f602483612c41565b915061242a8261304a565b604082019050919050565b6000612442601983612c41565b915061244d82613099565b602082019050919050565b6000612465602683612c52565b9150612470826130c2565b602682019050919050565b6000612488602c83612c41565b915061249382613111565b604082019050919050565b60006124ab600d83612c52565b91506124b682613160565b600d82019050919050565b60006124ce603883612c41565b91506124d982613189565b604082019050919050565b60006124f1600c83612c52565b91506124fc826131d8565b600c82019050919050565b6000612514602a83612c41565b915061251f82613201565b604082019050919050565b6000612537602983612c41565b915061254282613250565b604082019050919050565b600061255a602e83612c41565b91506125658261329f565b604082019050919050565b600061257d601283612c52565b9150612588826132ee565b601282019050919050565b60006125a0600283612c52565b91506125ab82613317565b600282019050919050565b60006125c3602083612c41565b91506125ce82613340565b602082019050919050565b60006125e6601983612c41565b91506125f182613369565b602082019050919050565b6000612609603183612c41565b915061261482613392565b604082019050919050565b600061262c602c83612c41565b9150612637826133e1565b604082019050919050565b600061264f601483612c52565b915061265a82613430565b601482019050919050565b6000612672602983612c41565b915061267d82613459565b604082019050919050565b6000612695602f83612c41565b91506126a0826134a8565b604082019050919050565b60006126b8600a83612c52565b91506126c3826134f7565b600a82019050919050565b60006126db602183612c41565b91506126e682613520565b604082019050919050565b60006126fe601d83612c52565b91506127098261356f565b601d82019050919050565b6000612721603183612c41565b915061272c82613598565b604082019050919050565b61274081612ddc565b82525050565b6000612752828561231c565b915061275e828461231c565b91508190509392505050565b6000612776828561234d565b9150612782828461231c565b915061278d8261249e565b91508190509392505050565b60006127a5828661234d565b91506127b1828561234d565b91506127bd828461234d565b9150819050949350505050565b60006127d5826124e4565b91506127e1828461231c565b915081905092915050565b60006127f7826126ab565b9150612803828561231c565b915061280e82612570565b915061281982612642565b915061282482612458565b9150612830828461231c565b915061283b82612593565b91508190509392505050565b6000612852826126f1565b915061285e828461231c565b915081905092915050565b600060208201905061287e600083018461228c565b92915050565b6000608082019050612899600083018761228c565b6128a6602083018661228c565b6128b36040830185612737565b81810360608301526128c581846122aa565b905095945050505050565b60006040820190506128e5600083018561228c565b6128f26020830184612737565b9392505050565b600060208201905061290e600083018461229b565b92915050565b6000602082019050818103600083015261292e81846122e3565b905092915050565b6000606082019050818103600083015261295081866122e3565b905061295f6020830185612737565b61296c604083018461228c565b949350505050565b6000602082019050818103600083015261298d816123cc565b9050919050565b600060208201905081810360008301526129ad816123ef565b9050919050565b600060208201905081810360008301526129cd81612412565b9050919050565b600060208201905081810360008301526129ed81612435565b9050919050565b60006020820190508181036000830152612a0d8161247b565b9050919050565b60006020820190508181036000830152612a2d816124c1565b9050919050565b60006020820190508181036000830152612a4d81612507565b9050919050565b60006020820190508181036000830152612a6d8161252a565b9050919050565b60006020820190508181036000830152612a8d8161254d565b9050919050565b60006020820190508181036000830152612aad816125b6565b9050919050565b60006020820190508181036000830152612acd816125d9565b9050919050565b60006020820190508181036000830152612aed816125fc565b9050919050565b60006020820190508181036000830152612b0d8161261f565b9050919050565b60006020820190508181036000830152612b2d81612665565b9050919050565b60006020820190508181036000830152612b4d81612688565b9050919050565b60006020820190508181036000830152612b6d816126ce565b9050919050565b60006020820190508181036000830152612b8d81612714565b9050919050565b6000602082019050612ba96000830184612737565b92915050565b6000612bb9612bca565b9050612bc58282612e5a565b919050565b6000604051905090565b600067ffffffffffffffff821115612bef57612bee612f92565b5b612bf882612fc1565b9050602081019050919050565b60008190508160005260206000209050919050565b600081519050919050565b600081519050919050565b600082825260208201905092915050565b600082825260208201905092915050565b600081905092915050565b6000612c6882612ddc565b9150612c7383612ddc565b9250827fffffffffffffffffffffffffffffffffffffffffffffffffffffffffffffffff03821115612ca857612ca7612f05565b5b828201905092915050565b6000612cbe82612ddc565b9150612cc983612ddc565b925082612cd957612cd8612f34565b5b828204905092915050565b6000612cef82612ddc565b9150612cfa83612ddc565b9250817fffffffffffffffffffffffffffffffffffffffffffffffffffffffffffffffff0483118215151615612d3357612d32612f05565b5b828202905092915050565b6000612d4982612ddc565b9150612d5483612ddc565b925082821015612d6757612d66612f05565b5b828203905092915050565b6000612d7d82612dbc565b9050919050565b60008115159050919050565b60007fffffffff0000000000000000000000000000000000000000000000000000000082169050919050565b600073ffffffffffffffffffffffffffffffffffffffff82169050919050565b6000819050919050565b82818337600083830152505050565b60005b83811015612e13578082015181840152602081019050612df8565b83811115612e22576000848401525b50505050565b60006002820490506001821680612e4057607f821691505b60208210811415612e5457612e53612f63565b5b50919050565b612e6382612fc1565b810181811067ffffffffffffffff82111715612e8257612e81612f92565b5b80604052505050565b6000612e9682612ddc565b91507fffffffffffffffffffffffffffffffffffffffffffffffffffffffffffffffff821415612ec957612ec8612f05565b5b600182019050919050565b6000612edf82612ddc565b9150612eea83612ddc565b925082612efa57612ef9612f34565b5b828206905092915050565b7f4e487b7100000000000000000000000000000000000000000000000000000000600052601160045260246000fd5b7f4e487b7100000000000000000000000000000000000000000000000000000000600052601260045260246000fd5b7f4e487b7100000000000000000000000000000000000000000000000000000000600052602260045260246000fd5b7f4e487b7100000000000000000000000000000000000000000000000000000000600052604160045260246000fd5b6000601f19601f8301169050919050565b7f4552433732313a207472616e7366657220746f206e6f6e20455243373231526560008201527f63656976657220696d706c656d656e7465720000000000000000000000000000602082015250565b7f4552433732313a20746f6b656e20616c7265616479206d696e74656400000000600082015250565b7f4552433732313a207472616e7366657220746f20746865207a65726f2061646460008201527f7265737300000000000000000000000000000000000000000000000000000000602082015250565b7f4552433732313a20617070726f766520746f2063616c6c657200000000000000600082015250565b7f2c2022696d61676522203a22646174613a696d6167652f7376672b786d6c3b6260008201527f61736536342c0000000000000000000000000000000000000000000000000000602082015250565b7f4552433732313a206f70657261746f7220717565727920666f72206e6f6e657860008201527f697374656e7420746f6b656e0000000000000000000000000000000000000000602082015250565b7f3c2f746578743e3c2f7376673e00000000000000000000000000000000000000600082015250565b7f4552433732313a20617070726f76652063616c6c6572206973206e6f74206f7760008201527f6e6572206e6f7220617070726f76656420666f7220616c6c0000000000000000602082015250565b7f52616e646f6d20576f7264730000000000000000000000000000000000000000600082015250565b7f4552433732313a2062616c616e636520717565727920666f7220746865207a6560008201527f726f206164647265737300000000000000000000000000000000000000000000602082015250565b7f4552433732313a206f776e657220717565727920666f72206e6f6e657869737460008201527f656e7420746f6b656e0000000000000000000000000000000000000000000000602082015250565b7f45524337323155524953746f726167653a2055524920736574206f66206e6f6e60008201527f6578697374656e7420746f6b656e000000000000000000000000000000000000602082015250565b7f222c20226465736372697074696f6e22203a0000000000000000000000000000600082015250565b7f227d000000000000000000000000000000000000000000000000000000000000600082015250565b7f4552433732313a206d696e7420746f20746865207a65726f2061646472657373600082015250565b7f416c6c204e4654732068617665206265656e206d696e74656400000000000000600082015250565b7f45524337323155524953746f726167653a2055524920717565727920666f722060008201527f6e6f6e6578697374656e7420746f6b656e000000000000000000000000000000602082015250565b7f4552433732313a20617070726f76656420717565727920666f72206e6f6e657860008201527f697374656e7420746f6b656e0000000000000000000000000000000000000000602082015250565b7f2272616e646f6d203320776f7264204e46547322000000000000000000000000600082015250565b7f4552433732313a207472616e73666572206f6620746f6b656e2074686174206960008201527f73206e6f74206f776e0000000000000000000000000000000000000000000000602082015250565b7f4552433732314d657461646174613a2055524920717565727920666f72206e6f60008201527f6e6578697374656e7420746f6b656e0000000000000000000000000000000000602082015250565b7f7b226e616d6522203a2200000000000000000000000000000000000000000000600082015250565b7f4552433732313a20617070726f76616c20746f2063757272656e74206f776e6560008201527f7200000000000000000000000000000000000000000000000000000000000000602082015250565b7f646174613a6170706c69636174696f6e2f6a736f6e3b6261736536342c000000600082015250565b7f4552433732313a207472616e736665722063616c6c6572206973206e6f74206f60008201527f776e6572206e6f7220617070726f766564000000000000000000000000000000602082015250565b6135f081612d72565b81146135fb57600080fd5b50565b61360781612d84565b811461361257600080fd5b50565b61361e81612d90565b811461362957600080fd5b50565b61363581612ddc565b811461364057600080fd5b5056fe4142434445464748494a4b4c4d4e4f505152535455565758595a6162636465666768696a6b6c6d6e6f707172737475767778797a303132333435363738392b2fa26469706673582212207d1ad186270b6597e5c5298f3f7772530925e2d46005a08e27aaa3e54aed58f764736f6c634300080400333c73766720786d6c6e733d27687474703a2f2f7777772e77332e6f72672f323030302f73766727207072657365727665417370656374526174696f3d27784d696e594d696e206d656574272076696577426f783d273020302033353020333530273e3c7374796c653e2e62617365207b2066696c6c3a2077686974653b20666f6e742d66616d696c793a2073657269663b20666f6e742d73697a653a20323470783b207d3c2f7374796c653e3c726563742077696474683d273130302527206865696768743d2731303025272066696c6c3d27626c61636b27202f3e3c7465787420783d273530252720793d273530252720636c6173733d27626173652720646f6d696e616e742d626173656c696e653d276d6964646c652720746578742d616e63686f723d276d6964646c65273e",
  "linkReferences": {},
  "deployedLinkReferences": {}
}